{
  "_format": "hh-sol-artifact-1",
  "contractName": "ProductsModule",
  "sourceName": "contracts/ProductsModule.sol",
  "abi": [
    {
      "inputs": [],
      "stateMutability": "nonpayable",
      "type": "constructor"
    },
    {
      "inputs": [],
      "name": "ActiveListing",
      "type": "error"
    },
    {
      "inputs": [],
      "name": "ExceedsMaxValue",
      "type": "error"
    },
    {
      "inputs": [],
      "name": "InexistentPool",
      "type": "error"
    },
    {
      "inputs": [],
      "name": "InexistentProduct",
      "type": "error"
    },
    {
      "inputs": [],
      "name": "Invalid",
      "type": "error"
    },
    {
      "inputs": [],
      "name": "NoDelegatecall",
      "type": "error"
    },
    {
      "inputs": [],
      "name": "NotAuthorized",
      "type": "error"
    },
    {
      "inputs": [],
      "name": "NotPurchased",
      "type": "error"
    },
    {
      "inputs": [],
      "name": "NotSuccessful",
      "type": "error"
    },
    {
      "inputs": [],
      "name": "TooSoon",
      "type": "error"
    },
    {
      "inputs": [],
      "name": "WrongCurrency",
      "type": "error"
    },
    {
      "anonymous": false,
      "inputs": [
        {
          "indexed": false,
          "internalType": "address",
          "name": "previousAdmin",
          "type": "address"
        },
        {
          "indexed": false,
          "internalType": "address",
          "name": "newAdmin",
          "type": "address"
        }
      ],
      "name": "AdminChanged",
      "type": "event"
    },
    {
      "anonymous": false,
      "inputs": [
        {
          "indexed": true,
          "internalType": "address",
          "name": "beacon",
          "type": "address"
        }
      ],
      "name": "BeaconUpgraded",
      "type": "event"
    },
    {
      "anonymous": false,
      "inputs": [
        {
          "indexed": true,
          "internalType": "uint256",
          "name": "slicerId",
          "type": "uint256"
        },
        {
          "indexed": true,
          "internalType": "address",
          "name": "contractAddress",
          "type": "address"
        },
        {
          "indexed": true,
          "internalType": "uint256",
          "name": "tokenId",
          "type": "uint256"
        },
        {
          "indexed": false,
          "internalType": "uint256",
          "name": "currentAmount",
          "type": "uint256"
        }
      ],
      "name": "ERC1155ListingChanged",
      "type": "event"
    },
    {
      "anonymous": false,
      "inputs": [
        {
          "indexed": true,
          "internalType": "uint256",
          "name": "slicerId",
          "type": "uint256"
        },
        {
          "indexed": true,
          "internalType": "address",
          "name": "contractAddress",
          "type": "address"
        },
        {
          "indexed": true,
          "internalType": "uint256",
          "name": "tokenId",
          "type": "uint256"
        },
        {
          "indexed": false,
          "internalType": "bool",
          "name": "isActive",
          "type": "bool"
        }
      ],
      "name": "ERC721ListingChanged",
      "type": "event"
    },
    {
      "anonymous": false,
      "inputs": [
        {
          "indexed": false,
          "internalType": "uint8",
          "name": "version",
          "type": "uint8"
        }
      ],
      "name": "Initialized",
      "type": "event"
    },
    {
      "anonymous": false,
      "inputs": [
        {
          "indexed": true,
          "internalType": "address",
          "name": "previousOwner",
          "type": "address"
        },
        {
          "indexed": true,
          "internalType": "address",
          "name": "newOwner",
          "type": "address"
        }
      ],
      "name": "OwnershipTransferred",
      "type": "event"
    },
    {
      "anonymous": false,
      "inputs": [
        {
          "indexed": false,
          "internalType": "address",
          "name": "account",
          "type": "address"
        }
      ],
      "name": "Paused",
      "type": "event"
    },
    {
      "anonymous": false,
      "inputs": [
        {
          "indexed": true,
          "internalType": "uint256",
          "name": "slicerId",
          "type": "uint256"
        },
        {
          "indexed": true,
          "internalType": "uint256",
          "name": "productId",
          "type": "uint256"
        },
        {
          "indexed": true,
          "internalType": "uint256",
          "name": "categoryIndex",
          "type": "uint256"
        },
        {
          "indexed": false,
          "internalType": "address",
          "name": "creator",
          "type": "address"
        },
        {
          "components": [
            {
              "components": [
                {
                  "internalType": "uint128",
                  "name": "subSlicerId",
                  "type": "uint128"
                },
                {
                  "internalType": "uint32",
                  "name": "subProductId",
                  "type": "uint32"
                }
              ],
              "internalType": "struct SubSlicerProduct[]",
              "name": "subSlicerProducts",
              "type": "tuple[]"
            },
            {
              "components": [
                {
                  "internalType": "uint248",
                  "name": "value",
                  "type": "uint248"
                },
                {
                  "internalType": "bool",
                  "name": "dynamicPricing",
                  "type": "bool"
                },
                {
                  "internalType": "address",
                  "name": "externalAddress",
                  "type": "address"
                },
                {
                  "internalType": "address",
                  "name": "currency",
                  "type": "address"
                }
              ],
              "internalType": "struct CurrencyPrice[]",
              "name": "currencyPrices",
              "type": "tuple[]"
            },
            {
              "internalType": "bytes",
              "name": "data",
              "type": "bytes"
            },
            {
              "internalType": "bytes",
              "name": "purchaseData",
              "type": "bytes"
            },
            {
              "internalType": "uint32",
              "name": "availableUnits",
              "type": "uint32"
            },
            {
              "internalType": "uint8",
              "name": "maxUnitsPerBuyer",
              "type": "uint8"
            },
            {
              "internalType": "bool",
              "name": "isFree",
              "type": "bool"
            },
            {
              "internalType": "bool",
              "name": "isInfinite",
              "type": "bool"
            },
            {
              "internalType": "bool",
              "name": "isExternalCallPaymentRelative",
              "type": "bool"
            },
            {
              "internalType": "bool",
              "name": "isExternalCallPreferredToken",
              "type": "bool"
            }
          ],
          "indexed": false,
          "internalType": "struct ProductParams",
          "name": "params",
          "type": "tuple"
        },
        {
          "components": [
            {
              "internalType": "bytes",
              "name": "data",
              "type": "bytes"
            },
            {
              "internalType": "uint256",
              "name": "value",
              "type": "uint256"
            },
            {
              "internalType": "address",
              "name": "externalAddress",
              "type": "address"
            },
            {
              "internalType": "bytes4",
              "name": "checkFunctionSignature",
              "type": "bytes4"
            },
            {
              "internalType": "bytes4",
              "name": "execFunctionSignature",
              "type": "bytes4"
            }
          ],
          "indexed": false,
          "internalType": "struct Function",
          "name": "externalCall",
          "type": "tuple"
        }
      ],
      "name": "ProductAdded",
      "type": "event"
    },
    {
      "anonymous": false,
      "inputs": [
        {
          "indexed": true,
          "internalType": "uint256",
          "name": "slicerId",
          "type": "uint256"
        },
        {
          "indexed": true,
          "internalType": "uint256",
          "name": "productId",
          "type": "uint256"
        },
        {
          "indexed": false,
          "internalType": "uint8",
          "name": "maxUnitsPerBuyer",
          "type": "uint8"
        },
        {
          "indexed": false,
          "internalType": "bool",
          "name": "isFree",
          "type": "bool"
        },
        {
          "indexed": false,
          "internalType": "bool",
          "name": "isInfinite",
          "type": "bool"
        },
        {
          "indexed": false,
          "internalType": "uint256",
          "name": "newUnits",
          "type": "uint256"
        },
        {
          "components": [
            {
              "internalType": "uint248",
              "name": "value",
              "type": "uint248"
            },
            {
              "internalType": "bool",
              "name": "dynamicPricing",
              "type": "bool"
            },
            {
              "internalType": "address",
              "name": "externalAddress",
              "type": "address"
            },
            {
              "internalType": "address",
              "name": "currency",
              "type": "address"
            }
          ],
          "indexed": false,
          "internalType": "struct CurrencyPrice[]",
          "name": "currencyPrices",
          "type": "tuple[]"
        }
      ],
      "name": "ProductInfoChanged",
      "type": "event"
    },
    {
      "anonymous": false,
      "inputs": [
        {
          "indexed": true,
          "internalType": "uint256",
          "name": "slicerId",
          "type": "uint256"
        },
        {
          "indexed": true,
          "internalType": "uint256",
          "name": "productId",
          "type": "uint256"
        },
        {
          "indexed": false,
          "internalType": "uint256",
          "name": "quantity",
          "type": "uint256"
        },
        {
          "indexed": true,
          "internalType": "address",
          "name": "buyer",
          "type": "address"
        },
        {
          "indexed": false,
          "internalType": "address",
          "name": "currency",
          "type": "address"
        },
        {
          "components": [
            {
              "internalType": "uint256",
              "name": "eth",
              "type": "uint256"
            },
            {
              "internalType": "uint256",
              "name": "currency",
              "type": "uint256"
            },
            {
              "internalType": "uint256",
              "name": "ethExternalCall",
              "type": "uint256"
            },
            {
              "internalType": "uint256",
              "name": "currencyExternalCall",
              "type": "uint256"
            }
          ],
          "indexed": false,
          "internalType": "struct Price",
          "name": "price",
          "type": "tuple"
        }
      ],
      "name": "ProductPaid",
      "type": "event"
    },
    {
      "anonymous": false,
      "inputs": [
        {
          "indexed": true,
          "internalType": "uint256",
          "name": "slicerId",
          "type": "uint256"
        },
        {
          "indexed": true,
          "internalType": "uint256",
          "name": "productId",
          "type": "uint256"
        }
      ],
      "name": "ProductRemoved",
      "type": "event"
    },
    {
      "anonymous": false,
      "inputs": [
        {
          "indexed": true,
          "internalType": "uint256",
          "name": "slicerId",
          "type": "uint256"
        },
        {
          "indexed": false,
          "internalType": "uint256",
          "name": "ethToRelease",
          "type": "uint256"
        }
      ],
      "name": "ReleasedToSlicer",
      "type": "event"
    },
    {
      "anonymous": false,
      "inputs": [
        {
          "indexed": false,
          "internalType": "address",
          "name": "account",
          "type": "address"
        }
      ],
      "name": "Unpaused",
      "type": "event"
    },
    {
      "anonymous": false,
      "inputs": [
        {
          "indexed": true,
          "internalType": "address",
          "name": "implementation",
          "type": "address"
        }
      ],
      "name": "Upgraded",
      "type": "event"
    },
    {
      "inputs": [],
      "name": "_togglePause",
      "outputs": [],
      "stateMutability": "nonpayable",
      "type": "function"
    },
    {
      "inputs": [
        {
          "internalType": "uint256",
          "name": "slicerId",
          "type": "uint256"
        },
        {
          "components": [
            {
              "components": [
                {
                  "internalType": "uint128",
                  "name": "subSlicerId",
                  "type": "uint128"
                },
                {
                  "internalType": "uint32",
                  "name": "subProductId",
                  "type": "uint32"
                }
              ],
              "internalType": "struct SubSlicerProduct[]",
              "name": "subSlicerProducts",
              "type": "tuple[]"
            },
            {
              "components": [
                {
                  "internalType": "uint248",
                  "name": "value",
                  "type": "uint248"
                },
                {
                  "internalType": "bool",
                  "name": "dynamicPricing",
                  "type": "bool"
                },
                {
                  "internalType": "address",
                  "name": "externalAddress",
                  "type": "address"
                },
                {
                  "internalType": "address",
                  "name": "currency",
                  "type": "address"
                }
              ],
              "internalType": "struct CurrencyPrice[]",
              "name": "currencyPrices",
              "type": "tuple[]"
            },
            {
              "internalType": "bytes",
              "name": "data",
              "type": "bytes"
            },
            {
              "internalType": "bytes",
              "name": "purchaseData",
              "type": "bytes"
            },
            {
              "internalType": "uint32",
              "name": "availableUnits",
              "type": "uint32"
            },
            {
              "internalType": "uint8",
              "name": "maxUnitsPerBuyer",
              "type": "uint8"
            },
            {
              "internalType": "bool",
              "name": "isFree",
              "type": "bool"
            },
            {
              "internalType": "bool",
              "name": "isInfinite",
              "type": "bool"
            },
            {
              "internalType": "bool",
              "name": "isExternalCallPaymentRelative",
              "type": "bool"
            },
            {
              "internalType": "bool",
              "name": "isExternalCallPreferredToken",
              "type": "bool"
            }
          ],
          "internalType": "struct ProductParams",
          "name": "params",
          "type": "tuple"
        },
        {
          "components": [
            {
              "internalType": "bytes",
              "name": "data",
              "type": "bytes"
            },
            {
              "internalType": "uint256",
              "name": "value",
              "type": "uint256"
            },
            {
              "internalType": "address",
              "name": "externalAddress",
              "type": "address"
            },
            {
              "internalType": "bytes4",
              "name": "checkFunctionSignature",
              "type": "bytes4"
            },
            {
              "internalType": "bytes4",
              "name": "execFunctionSignature",
              "type": "bytes4"
            }
          ],
          "internalType": "struct Function",
          "name": "externalCall_",
          "type": "tuple"
        }
      ],
      "name": "addProduct",
      "outputs": [],
      "stateMutability": "nonpayable",
      "type": "function"
    },
    {
      "inputs": [
        {
          "internalType": "uint256",
          "name": "slicerId",
          "type": "uint256"
        },
        {
          "internalType": "uint256",
          "name": "productId",
          "type": "uint256"
        }
      ],
      "name": "availableUnits",
      "outputs": [
        {
          "internalType": "uint256",
          "name": "units",
          "type": "uint256"
        },
        {
          "internalType": "bool",
          "name": "isInfinite",
          "type": "bool"
        }
      ],
      "stateMutability": "view",
      "type": "function"
    },
    {
      "inputs": [
        {
          "internalType": "uint256",
          "name": "slicerId",
          "type": "uint256"
        }
      ],
      "name": "ethBalance",
      "outputs": [
        {
          "internalType": "uint256",
          "name": "",
          "type": "uint256"
        }
      ],
      "stateMutability": "view",
      "type": "function"
    },
    {
      "inputs": [],
      "name": "fundsModule",
      "outputs": [
        {
          "internalType": "contract IFundsModule",
          "name": "",
          "type": "address"
        }
      ],
      "stateMutability": "view",
      "type": "function"
    },
    {
      "inputs": [],
      "name": "initialize",
      "outputs": [],
      "stateMutability": "nonpayable",
      "type": "function"
    },
    {
      "inputs": [
        {
          "internalType": "uint256",
          "name": "slicerId",
          "type": "uint256"
        },
        {
          "internalType": "uint256",
          "name": "productId",
          "type": "uint256"
        },
        {
          "internalType": "address",
          "name": "account",
          "type": "address"
        }
      ],
      "name": "isProductOwner",
      "outputs": [
        {
          "internalType": "bool",
          "name": "isAllowed",
          "type": "bool"
        }
      ],
      "stateMutability": "view",
      "type": "function"
    },
    {
      "inputs": [],
      "name": "owner",
      "outputs": [
        {
          "internalType": "address",
          "name": "",
          "type": "address"
        }
      ],
      "stateMutability": "view",
      "type": "function"
    },
    {
      "inputs": [],
      "name": "paused",
      "outputs": [
        {
          "internalType": "bool",
          "name": "",
          "type": "bool"
        }
      ],
      "stateMutability": "view",
      "type": "function"
    },
    {
      "inputs": [
        {
          "components": [
            {
              "internalType": "address",
              "name": "buyer",
              "type": "address"
            },
            {
              "internalType": "uint128",
              "name": "slicerId",
              "type": "uint128"
            },
            {
              "internalType": "uint32",
              "name": "quantity",
              "type": "uint32"
            },
            {
              "internalType": "address",
              "name": "currency",
              "type": "address"
            },
            {
              "internalType": "uint32",
              "name": "productId",
              "type": "uint32"
            },
            {
              "internalType": "bytes",
              "name": "buyerCustomData",
              "type": "bytes"
            }
          ],
          "internalType": "struct PurchaseParams[]",
          "name": "purchases",
          "type": "tuple[]"
        }
      ],
      "name": "payProducts",
      "outputs": [],
      "stateMutability": "payable",
      "type": "function"
    },
    {
      "inputs": [],
      "name": "priceFeed",
      "outputs": [
        {
          "internalType": "contract IPriceFeed",
          "name": "",
          "type": "address"
        }
      ],
      "stateMutability": "view",
      "type": "function"
    },
    {
      "inputs": [
        {
          "internalType": "uint256",
          "name": "slicerId",
          "type": "uint256"
        },
        {
          "internalType": "uint256",
          "name": "productId",
          "type": "uint256"
        },
        {
          "internalType": "address",
          "name": "currency",
          "type": "address"
        },
        {
          "internalType": "uint256",
          "name": "quantity",
          "type": "uint256"
        },
        {
          "internalType": "address",
          "name": "buyer",
          "type": "address"
        },
        {
          "internalType": "bytes",
          "name": "data",
          "type": "bytes"
        }
      ],
      "name": "productPrice",
      "outputs": [
        {
          "components": [
            {
              "internalType": "uint256",
              "name": "eth",
              "type": "uint256"
            },
            {
              "internalType": "uint256",
              "name": "currency",
              "type": "uint256"
            },
            {
              "internalType": "uint256",
              "name": "ethExternalCall",
              "type": "uint256"
            },
            {
              "internalType": "uint256",
              "name": "currencyExternalCall",
              "type": "uint256"
            }
          ],
          "internalType": "struct Price",
          "name": "price",
          "type": "tuple"
        }
      ],
      "stateMutability": "view",
      "type": "function"
    },
    {
      "inputs": [],
      "name": "proxiableUUID",
      "outputs": [
        {
          "internalType": "bytes32",
          "name": "",
          "type": "bytes32"
        }
      ],
      "stateMutability": "view",
      "type": "function"
    },
    {
      "inputs": [
        {
          "internalType": "uint256",
          "name": "slicerId",
          "type": "uint256"
        }
      ],
      "name": "releaseEthToSlicer",
      "outputs": [],
      "stateMutability": "nonpayable",
      "type": "function"
    },
    {
      "inputs": [
        {
          "internalType": "uint256",
          "name": "slicerId",
          "type": "uint256"
        },
        {
          "internalType": "uint256",
          "name": "productId",
          "type": "uint256"
        }
      ],
      "name": "removeProduct",
      "outputs": [],
      "stateMutability": "nonpayable",
      "type": "function"
    },
    {
      "inputs": [],
      "name": "renounceOwnership",
      "outputs": [],
      "stateMutability": "nonpayable",
      "type": "function"
    },
    {
      "inputs": [
        {
          "internalType": "uint256",
          "name": "slicerId",
          "type": "uint256"
        },
        {
          "internalType": "uint256",
          "name": "productId",
          "type": "uint256"
        },
        {
          "internalType": "uint8",
          "name": "newMaxUnits",
          "type": "uint8"
        },
        {
          "internalType": "bool",
          "name": "isFree",
          "type": "bool"
        },
        {
          "internalType": "bool",
          "name": "isInfinite",
          "type": "bool"
        },
        {
          "internalType": "uint32",
          "name": "newUnits",
          "type": "uint32"
        },
        {
          "components": [
            {
              "internalType": "uint248",
              "name": "value",
              "type": "uint248"
            },
            {
              "internalType": "bool",
              "name": "dynamicPricing",
              "type": "bool"
            },
            {
              "internalType": "address",
              "name": "externalAddress",
              "type": "address"
            },
            {
              "internalType": "address",
              "name": "currency",
              "type": "address"
            }
          ],
          "internalType": "struct CurrencyPrice[]",
          "name": "currencyPrices",
          "type": "tuple[]"
        }
      ],
      "name": "setProductInfo",
      "outputs": [],
      "stateMutability": "nonpayable",
      "type": "function"
    },
    {
      "inputs": [],
      "name": "sliceCore",
      "outputs": [
        {
          "internalType": "contract ISliceCore",
          "name": "",
          "type": "address"
        }
      ],
      "stateMutability": "view",
      "type": "function"
    },
    {
      "inputs": [
        {
          "internalType": "address",
          "name": "newOwner",
          "type": "address"
        }
      ],
      "name": "transferOwnership",
      "outputs": [],
      "stateMutability": "nonpayable",
      "type": "function"
    },
    {
      "inputs": [
        {
          "internalType": "address",
          "name": "newImplementation",
          "type": "address"
        }
      ],
      "name": "upgradeTo",
      "outputs": [],
      "stateMutability": "nonpayable",
      "type": "function"
    },
    {
      "inputs": [
        {
          "internalType": "address",
          "name": "newImplementation",
          "type": "address"
        },
        {
          "internalType": "bytes",
          "name": "data",
          "type": "bytes"
        }
      ],
      "name": "upgradeToAndCall",
      "outputs": [],
      "stateMutability": "payable",
      "type": "function"
    },
    {
      "inputs": [
        {
          "internalType": "uint256",
          "name": "slicerId",
          "type": "uint256"
        },
        {
          "internalType": "uint256",
          "name": "productId",
          "type": "uint256"
        }
      ],
      "name": "validatePurchase",
      "outputs": [
        {
          "internalType": "uint256",
          "name": "purchases",
          "type": "uint256"
        },
        {
          "internalType": "bytes",
          "name": "purchaseData",
          "type": "bytes"
        }
      ],
      "stateMutability": "view",
      "type": "function"
    },
    {
      "inputs": [
        {
          "internalType": "address",
          "name": "account",
          "type": "address"
        },
        {
          "internalType": "uint256",
          "name": "slicerId",
          "type": "uint256"
        },
        {
          "internalType": "uint256",
          "name": "productId",
          "type": "uint256"
        }
      ],
      "name": "validatePurchaseUnits",
      "outputs": [
        {
          "internalType": "uint256",
          "name": "purchases",
          "type": "uint256"
        }
      ],
      "stateMutability": "view",
      "type": "function"
    }
  ],
  "bytecode": "0x60a0604052306080523480156200001557600080fd5b506200002062000026565b620000e8565b600054610100900460ff1615620000935760405162461bcd60e51b815260206004820152602760248201527f496e697469616c697a61626c653a20636f6e747261637420697320696e697469604482015266616c697a696e6760c81b606482015260840160405180910390fd5b60005460ff9081161015620000e6576000805460ff191660ff9081179091556040519081527f7f26b83ff96e1f2b6a682f133852f6798a09c465da95921460cefb38474024989060200160405180910390a15b565b60805161519b6200012060003960008181610ab901528181610b0201528181610d1a01528181610d5a01526110c9015261519b6000f3fe6080604052600436106101405760003560e01c8063741bef1a116100b6578063d2c5ca9a1161006f578063d2c5ca9a146103cc578063d7a3d0c8146103df578063e6e928081461040c578063f2fde38b1461042c578063f4c763631461044c578063ff3ef63f1461047457600080fd5b8063741bef1a146103115780638129fc1c146103395780638da5cb5b1461034e57806395f237041461036c578063bf17f2f21461038c578063c993a08d146103ac57600080fd5b80634f1ef286116101085780634f1ef286146102425780635287d5351461025557806352d1902d146102755780635c975abb146102985780636740ff40146102bc578063715018a6146102fc57600080fd5b80630d24c670146101455780631eafafb4146101675780633659cfe6146101df578063405b4c36146101ff5780634c04e9c614610214575b600080fd5b34801561015157600080fd5b50610165610160366004613ed3565b610494565b005b34801561017357600080fd5b506101c5610182366004613fa1565b600091825260fb60209081526040808420928452600192830190915290912060080154600160c81b810463ffffffff1692600160f01b909104821c909116151590565b604080519283529015156020830152015b60405180910390f35b3480156101eb57600080fd5b506101656101fa366004613fd8565b610aaf565b34801561020b57600080fd5b50610165610b97565b34801561022057600080fd5b5061023461022f366004613fa1565b610bbc565b6040516101d692919061404d565b6101656102503660046141aa565b610d10565b34801561026157600080fd5b50610165610270366004613fa1565b610de0565b34801561028157600080fd5b5061028a6110bc565b6040519081526020016101d6565b3480156102a457600080fd5b5060c95460ff165b60405190151581526020016101d6565b3480156102c857600080fd5b506102e4738bf3585b3740a2da2190f911ea8bc84dd7972dd681565b6040516001600160a01b0390911681526020016101d6565b34801561030857600080fd5b5061016561116f565b34801561031d57600080fd5b506102e473f2e8176c0b67232b20205f4dfbcec3e74bca471f81565b34801561034557600080fd5b50610165611181565b34801561035a57600080fd5b506097546001600160a01b03166102e4565b34801561037857600080fd5b5061028a6103873660046141f9565b611291565b34801561039857600080fd5b5061028a6103a736600461422e565b6112cd565b3480156103b857600080fd5b506101656103c736600461422e565b6112f8565b6101656103da366004614281565b61137b565b3480156103eb57600080fd5b506103ff6103fa3660046143c8565b6113ea565b6040516101d69190614445565b34801561041857600080fd5b506102ac610427366004614470565b61144c565b34801561043857600080fd5b50610165610447366004613fd8565b611492565b34801561045857600080fd5b506102e473115978100953d0aa6f2f8865d11dc5888f72837081565b34801561048057600080fd5b5061016561048f3660046146dd565b611508565b600088815260fb6020908152604080832060038101548b855260019091019092529091206001600160a01b039091169081906104d18183336121ca565b6104ee5760405163ea8e4eb560e01b815260040160405180910390fd5b83156108dc5760088101546201518064ffffffffff600160a01b9092048216011642101561052f57604051636fed7d8560e01b815260040160405180910390fd5b60088101805464ffffffffff60a01b1916600160a01b4264ffffffffff160217905560408051608081018252600080825260208201819052918101829052606081019190915260005b858110156108d9578686828181106105925761059261484c565b9050608002018036038101906105a89190614862565b60608101519092506001600160a01b0316158015906105e8575060608201516001600160a01b0316731d3804fd06f09266153882bf391552befa2dbc0514155b1561067a57606082015160405163b25e9c3960e01b81526001600160a01b0391821660048201529085169063b25e9c3990602401602060405180830381865afa158015610639573d6000803e3d6000fd5b505050506040513d601f19601f8201168201806040525081019061065d919061487e565b61067a57604051630b27db6160e11b815260040160405180910390fd5b60608201516001600160a01b0316600090815260018401602052604090205482516001600160f81b039081169116146106eb57815160608301516001600160a01b03166000908152600185016020526040902080546001600160f81b0319166001600160f81b039092169190911790555b60608201516001600160a01b0316600090815260018401602090815260409091205490830151600160f81b90910460ff1615159015151461085f5760608201516001600160a01b03161561081d57606082015160405163a2d7046f60e01b815273b4fbf271143f4fbf7b91a5ded31805e42b2208d660048201526001600160a01b03909116602482015262093a8060448201526002606482015260009073f2e8176c0b67232b20205f4dfbcec3e74bca471f9063a2d7046f906084016000604051808303816000875af11580156107c6573d6000803e3d6000fd5b505050506040513d6000823e601f3d908101601f191682016040526107ee9190810190614911565b505080519091506001600160a01b031661081b57604051632b9bb16560e11b815260040160405180910390fd5b505b60208083015160608401516001600160a01b031660009081526001860190925260409091208054911515600160f81b026001600160f81b039092169190911790555b60608201516001600160a01b039081166000908152600180860160205260409182902001549084015182169116146108d15760408281015160608401516001600160a01b039081166000908152600187810160205293902090920180546001600160a01b031916929091169190911790555b600101610578565b50505b6108ef8b84898963ffffffff16856122d5565b87801561090857506008810154600160f01b9004600116155b8061092957508715801561092957506008810154600160f01b900460011615155b156109545760088101805460ff600160f01b80830482166001189091160260ff60f01b199091161790555b86801561097057506008810154600160f01b9004600190811c16155b8061099457508615801561099457506008810154600160f01b9004600190811c1615155b156109bf5760088101805460ff600160f01b80830482166002189091160260ff60f01b199091161790555b600881015460ff8a8116600160e81b90920416146109f25760088101805460ff60e81b1916600160e81b60ff8c16021790555b8615610a0f5760088101805463ffffffff60c81b19169055610a4b565b600881015463ffffffff878116600160c81b9092041614610a4b5760088101805463ffffffff60c81b1916600160c81b63ffffffff8916021790555b898b7f47ed3606b96c516c076d9567a4deb8181f5da7370bdb1fedb883a7d3d5e890b98b8b8b8660080160199054906101000a900463ffffffff168b8b604051610a9a969594939291906149de565b60405180910390a35050505050505050505050565b6001600160a01b037f0000000000000000000000000000000000000000000000000000000000000000163003610b005760405162461bcd60e51b8152600401610af790614aa1565b60405180910390fd5b7f00000000000000000000000000000000000000000000000000000000000000006001600160a01b0316610b496000805160206150ff833981519152546001600160a01b031690565b6001600160a01b031614610b6f5760405162461bcd60e51b8152600401610af790614aed565b610b78816125a8565b60408051600080825260208201909252610b94918391906125b0565b50565b610b9f61271b565b60c95460ff1615610bb457610bb2612775565b565b610bb26127c7565b600060603073ca6b9d59849ec880e82210e9cb8237e1d0caa69e14610bf45760405163acbcffa760e01b815260040160405180910390fd5b600084815260fb60209081526040808320868452600101825280832033845290915281205463ffffffff169003610c3e576040516363aae7a360e01b815260040160405180910390fd5b600084815260fb602090815260408083208684526001018083528184203385528084529184205493879052909152600701805463ffffffff909216918190610c8590614b39565b80601f0160208091040260200160405190810160405280929190818152602001828054610cb190614b39565b8015610cfe5780601f10610cd357610100808354040283529160200191610cfe565b820191906000526020600020905b815481529060010190602001808311610ce157829003601f168201915b50505050509050915091509250929050565b6001600160a01b037f0000000000000000000000000000000000000000000000000000000000000000163003610d585760405162461bcd60e51b8152600401610af790614aa1565b7f00000000000000000000000000000000000000000000000000000000000000006001600160a01b0316610da16000805160206150ff833981519152546001600160a01b031690565b6001600160a01b031614610dc75760405162461bcd60e51b8152600401610af790614aed565b610dd0826125a8565b610ddc828260016125b0565b5050565b600082815260fb60209081526040808320600381015485855260019091019092529091206001600160a01b03909116908190610e1d8183336121ca565b610e3a5760405163ea8e4eb560e01b815260040160405180910390fd5b60058101546001600160a01b0380851691160361106057600080826003016000018054610e6690614b39565b80601f0160208091040260200160405190810160405280929190818152602001828054610e9290614b39565b8015610edf5780601f10610eb457610100808354040283529160200191610edf565b820191906000526020600020905b815481529060010190602001808311610ec257829003601f168201915b5050505050806020019051810190610ef79190614b73565b600585015491935091506302868bf960e11b600160c01b90910460e01b6001600160e01b03191601610f9257600087815260fc602090815260408083206001600160a01b0386168085529083528184208585528352818420805460ff191690559051928352839290918a917f76529e1c5add2962fbfae2a36bbcf688a5c01516b043ad429f1d81830687a2db910160405180910390a461105d565b600583015462fc808960e71b600160c01b90910460e01b6001600160e01b0319160161105d576008830154600088815260fd602090815260408083206001600160a01b0387168452825280832085845290915281208054600160c81b90930463ffffffff1692909190611006908490614bb7565b9091555050600087815260fd602090815260408083206001600160a01b0386168085529083528184208585528352928190205490519081528392918a91600080516020615146833981519152910160405180910390a45b50505b600881018054600168ffffffff000000000160a01b0319169055611088600682016000613dc2565b604051849086907fd647384cccbd8b477a7b02b9e866072937e9a23b473b9de13fc0c6cb1d392a0a90600090a35050505050565b6000306001600160a01b037f0000000000000000000000000000000000000000000000000000000000000000161461115c5760405162461bcd60e51b815260206004820152603860248201527f555550535570677261646561626c653a206d757374206e6f742062652063616c60448201527f6c6564207468726f7567682064656c656761746563616c6c00000000000000006064820152608401610af7565b506000805160206150ff83398151915290565b61117761271b565b610bb26000612804565b600054610100900460ff16158080156111a15750600054600160ff909116105b806111bb5750303b1580156111bb575060005460ff166001145b61121e5760405162461bcd60e51b815260206004820152602e60248201527f496e697469616c697a61626c653a20636f6e747261637420697320616c72656160448201526d191e481a5b9a5d1a585b1a5e995960921b6064820152608401610af7565b6000805460ff191660011790558015611241576000805461ff0019166101001790555b611249612856565b8015610b94576000805461ff0019169055604051600181527f7f26b83ff96e1f2b6a682f133852f6798a09c465da95921460cefb38474024989060200160405180910390a150565b600082815260fb6020908152604080832084845260010182528083206001600160a01b038716845290915290205463ffffffff165b9392505050565b600081815260fb6020526040812060020154600181116112ee5760006112c6565b6000190192915050565b6000611303826112cd565b90508015610ddc57600082815260fb60205260409020600381015460016002909201919091556001600160a01b031661133c8183612885565b827f04cc711f7db61e897a32f3fe3e3faa9861b68d7d19fd9a669348213087b227268360405161136e91815260200190565b60405180910390a2505050565b6113836128d6565b6000805b82518110156113c6576113b28382815181106113a5576113a561484c565b602002602001015161291c565b6113bc9083614bce565b9150600101611387565b5060006113d38234614bb7565b905080156113e5576113e53382612885565b505050565b6114156040518060800160405280600081526020016000815260200160008152602001600081525090565b600087815260fb60209081526040808320898452600101909152902061144081898989898989613464565b98975050505050505050565b600083815260fb6020818152604080842086855260018101835290842087855292909152600301546001600160a01b03166114888282866121ca565b9695505050505050565b61149a61271b565b6001600160a01b0381166114ff5760405162461bcd60e51b815260206004820152602660248201527f4f776e61626c653a206e6577206f776e657220697320746865207a65726f206160448201526564647265737360d01b6064820152608401610af7565b610b9481612804565b600083815260fb6020526040902080546001019081905563ffffffff81111561154457604051636dac6a0960e01b815260040160405180910390fd5b8060010361168e57604051630bafd3f560e11b81526004810185905260009073115978100953d0aa6f2f8865d11dc5888f7283709063175fa7ea90602401602060405180830381865afa15801561159f573d6000803e3d6000fd5b505050506040513d601f19601f820116820180604052508101906115c39190614be6565b6001600160a01b0316036115ea57604051636dac6a0960e01b815260040160405180910390fd5b604051630bafd3f560e11b81526004810185905273115978100953d0aa6f2f8865d11dc5888f7283709063175fa7ea90602401602060405180830381865afa15801561163a573d6000803e3d6000fd5b505050506040513d601f19601f8201168201806040525081019061165e9190614be6565b600085815260fb6020526040902060030180546001600160a01b0319166001600160a01b03929092169190911790555b600084815260fb60205260409081902060030154905163166eb15b60e21b81523360048201526001600160a01b039091169081906359bac56c90602401602060405180830381865afa1580156116e8573d6000803e3d6000fd5b505050506040513d601f19601f8201168201806040525081019061170c919061487e565b6117295760405163ea8e4eb560e01b815260040160405180910390fd5b600085815260fb6020908152604080832063ffffffff861684526001019091529020845151156118525760005b855151811015611850576117e060fb60008860000151848151811061177d5761177d61484c565b6020026020010151600001516001600160801b031681526020019081526020016000206001016000886000015184815181106117bb576117bb61484c565b60200260200101516020015163ffffffff1681526020019081526020016000206139ad565b81600201866000015182815181106117fa576117fa61484c565b602090810291909101810151825460018181018555600094855293839020825191018054929093015163ffffffff16600160801b026001600160a01b03199092166001600160801b039091161717905501611756565b505b6040805160808101825260008082526020820181905291810182905260608101829052905b866020015151811015611b6f578660200151818151811061189a5761189a61484c565b6020026020010151915060006001600160a01b031682606001516001600160a01b0316141580156118ec575060608201516001600160a01b0316731d3804fd06f09266153882bf391552befa2dbc0514155b80156119655750606082015160405163b25e9c3960e01b81526001600160a01b0391821660048201529085169063b25e9c3990602401602060405180830381865afa15801561193f573d6000803e3d6000fd5b505050506040513d601f19601f82011682018060405250810190611963919061487e565b155b1561198357604051630b27db6160e11b815260040160405180910390fd5b81516001600160f81b0316156119d157815160608301516001600160a01b03166000908152600185016020526040902080546001600160f81b0319166001600160f81b039092169190911790555b816020015115611b145760608201516001600160a01b031615611ad257606082015160405163a2d7046f60e01b815273b4fbf271143f4fbf7b91a5ded31805e42b2208d660048201526001600160a01b03909116602482015262093a8060448201526002606482015260009073f2e8176c0b67232b20205f4dfbcec3e74bca471f9063a2d7046f906084016000604051808303816000875af1158015611a7b573d6000803e3d6000fd5b505050506040513d6000823e601f3d908101601f19168201604052611aa39190810190614911565b505080519091506001600160a01b0316611ad057604051632b9bb16560e11b815260040160405180910390fd5b505b60208083015160608401516001600160a01b031660009081526001860190925260409091208054911515600160f81b026001600160f81b039092169190911790555b60408201516001600160a01b031615611b675760408281015160608401516001600160a01b039081166000908152600187810160205293902090920180546001600160a01b031916929091169190911790555b600101611877565b5060408501516001600160a01b03161561205f57826001600160a01b031685604001516001600160a01b031603611f00576000808660000151806020019051810190611bbb9190614b73565b608089015191935091506001600160e01b0319166302868bf960e11b01611d6957876080015163ffffffff166001141580611bfe57508760a0015160ff16600114155b80611c0a57508760e001515b80611c8a57506040516331a9108f60e11b8152600481018290526001600160a01b038087169190841690636352211e90602401602060405180830381865afa158015611c5a573d6000803e3d6000fd5b505050506040513d601f19601f82011682018060405250810190611c7e9190614be6565b6001600160a01b031614155b15611ca85760405163ea8e4eb560e01b815260040160405180910390fd5b600089815260fc602090815260408083206001600160a01b0386168452825280832084845290915290205460ff1615611cf4576040516319e7a92b60e31b815260040160405180910390fd5b600089815260fc602090815260408083206001600160a01b038616808552908352818420858552835292819020805460ff1916600190811790915590519081528392918c917f76529e1c5add2962fbfae2a36bbcf688a5c01516b043ad429f1d81830687a2db910160405180910390a4611efd565b60808701516001600160e01b03191662fc808960e71b01611efd578760e0015180611e405750604051627eeac760e11b81526001600160a01b0386811660048301526024820183905283169062fdd58e90604401602060405180830381865afa158015611dda573d6000803e3d6000fd5b505050506040513d601f19601f82011682018060405250810190611dfe9190614c03565b60008a815260fd602090815260408083206001600160a01b0387168452825280832085845290915290205460808a0151611e3e919063ffffffff16614bce565b115b15611e5e57604051636dac6a0960e01b815260040160405180910390fd5b608088015160008a815260fd602090815260408083206001600160a01b038716845282528083208584529091528120805463ffffffff90931692909190611ea6908490614bce565b9091555050600089815260fd602090815260408083206001600160a01b0386168085529083528184208585528352928190205490519081528392918c91600080516020615146833981519152910160405180910390a45b50505b60408501516005830180546001600160a01b0319166001600160a01b0390921691909117905560808501516001600160e01b03191615611fa157608085015160058301805460e09290921c600160c01b0263ffffffff60c01b1990921691909117905560608501516001600160e01b03191615611fa157606085015160058301805460e09290921c600160a01b0263ffffffff60a01b199092169190911790555b84515115611fc35784518051611fc1916003850191602090910190613dfc565b505b602085015115611fd857602085015160048301555b856101200151156120075760088201805460ff60f01b1981166004600160f01b9283900460ff16179091021790555b8561010001511561205f576127108560200151111561203957604051633806212b60e21b815260040160405180910390fd5b6008828101805460ff60f01b198116600160f01b9182900460ff16909317029190911790555b6008820180546001600160a01b0319163317905560c0860151156120a15760088201805460ff60f01b1981166001600160f01b9283900460ff16179091021790555b60a086015160ff16156120d45760a086015160088301805460ff909216600160e81b0260ff60e81b199092169190911790555b8560e00151156121065760088201805460ff60f01b1981166002600160f01b9283900460ff1617909102179055612132565b608086015160088301805463ffffffff909216600160c81b0263ffffffff60c81b199092169190911790555b6040860151511561215a5760408601518051612158916006850191602090910190613dfc565b505b606086015151156121825760608601518051612180916007850191602090910190613dfc565b505b600084887f029a4465749d55fe5b28a7e348370e8ef8083bf6deb663e933b59f8dbe7500e7338a8a6040516121b993929190614d3c565b60405180910390a450505050505050565b60006121d5846139ad565b600884015460405163166eb15b60e21b81526001600160a01b039182166004820152908416906359bac56c90602401602060405180830381865afa158015612221573d6000803e3d6000fd5b505050506040513d601f19601f82011682018060405250810190612245919061487e565b15612263575060088301546001600160a01b038281169116146112c6565b60405163166eb15b60e21b81526001600160a01b0383811660048301528416906359bac56c90602401602060405180830381865afa1580156122a9573d6000803e3d6000fd5b505050506040513d601f19601f820116820180604052508101906122cd919061487e565b949350505050565b60058101546001600160a01b038086169116036125a15760008082600301600001805461230190614b39565b80601f016020809104026020016040519081016040528092919081815260200182805461232d90614b39565b801561237a5780601f1061234f5761010080835404028352916020019161237a565b820191906000526020600020905b81548152906001019060200180831161235d57829003601f168201915b50505050508060200190518101906123929190614b73565b600585015491935091506302868bf960e11b600160c01b90910460e01b6001600160e01b031916016123fe576008830154600160c81b900463ffffffff16841415806123db5750845b156123f957604051636dac6a0960e01b815260040160405180910390fd5b61259e565b600583015462fc808960e71b600160c01b90910460e01b6001600160e01b0319160161259e57841561244357604051636dac6a0960e01b815260040160405180910390fd5b6008830154600160c81b900463ffffffff16841461259e57604051627eeac760e11b81526001600160a01b038781166004830152602482018390526000919084169062fdd58e90604401602060405180830381865afa1580156124aa573d6000803e3d6000fd5b505050506040513d601f19601f820116820180604052508101906124ce9190614c03565b600885015460008a815260fd602090815260408083206001600160a01b0389168452825280832087845290915281205492935091600160c81b90910463ffffffff169061251c908890614bce565b6125269190614bb7565b90508181111561254957604051636dac6a0960e01b815260040160405180910390fd5b600089815260fd602090815260408083206001600160a01b038816808552908352818420878552835292819020849055518381528592918c91600080516020615146833981519152910160405180910390a450505b50505b5050505050565b610b9461271b565b7f4910fdfa16fed3260ed0e7147f7cc6da11a60208b5b9406d12a635614ffd91435460ff16156125e3576113e5836139d8565b826001600160a01b03166352d1902d6040518163ffffffff1660e01b8152600401602060405180830381865afa92505050801561263d575060408051601f3d908101601f1916820190925261263a91810190614c03565b60015b6126a05760405162461bcd60e51b815260206004820152602e60248201527f45524331393637557067726164653a206e657720696d706c656d656e7461746960448201526d6f6e206973206e6f74205555505360901b6064820152608401610af7565b6000805160206150ff833981519152811461270f5760405162461bcd60e51b815260206004820152602960248201527f45524331393637557067726164653a20756e737570706f727465642070726f786044820152681a58589b195555525160ba1b6064820152608401610af7565b506113e5838383613a74565b6097546001600160a01b03163314610bb25760405162461bcd60e51b815260206004820181905260248201527f4f776e61626c653a2063616c6c6572206973206e6f7420746865206f776e65726044820152606401610af7565b61277d613a9f565b60c9805460ff191690557f5db9ee0a495bf2e6ff9c91a7834c1ba4fdd244a5e8aa4e537bd38aeae4b073aa335b6040516001600160a01b03909116815260200160405180910390a1565b6127cf6128d6565b60c9805460ff191660011790557f62e78cea01bee320cd4e420270b5ea74000d11b0c9f74754ebdbfc544b05a2586127aa3390565b609780546001600160a01b038381166001600160a01b0319831681179093556040519116919082907f8be0079c531659141344cd1fd0a4f28419497f9722a3daafe3b4186f6b6457e090600090a35050565b600054610100900460ff1661287d5760405162461bcd60e51b8152600401610af790614e41565b610bb2613ae8565b600080600080600085875af19050806113e55760405162461bcd60e51b815260206004820152601360248201527211551217d514905394d1915497d19052531151606a1b6044820152606401610af7565b60c95460ff1615610bb25760405162461bcd60e51b815260206004820152601060248201526f14185d5cd8589b194e881c185d5cd95960821b6044820152606401610af7565b6000816040015163ffffffff1660001461345f57600060fb600084602001516001600160801b031681526020019081526020016000206001016000846080015163ffffffff168152602001908152602001600020905060006129b08285602001516001600160801b0316866080015163ffffffff168760600151886040015163ffffffff1689600001518a60a00151613464565b6020858101516001600160801b0316600090815260fb909152604090206003015460088401549192506001600160a01b031690600160e81b900460ff1615612a5857600883015460408681015187516001600160a01b0316600090815260208790529190912054600160e81b90920460ff1691612a33919063ffffffff16614e8c565b63ffffffff161115612a5857604051636dac6a0960e01b815260040160405180910390fd5b6008830154600160f01b9004600190811c16600003612ae0576008830154604086015163ffffffff600160c81b909204821691161115612aab57604051636dac6a0960e01b815260040160405180910390fd5b604085015160088401805463ffffffff600160c81b8083048216949094031690920263ffffffff60c81b199092169190911790555b60408201518251612af19190614bce565b82516020808801516001600160801b0316600090815260fb9091526040812060020180549397509192612b25908490614bce565b909155505060408086015186516001600160a01b031660009081526020869052918220805491929091612b5f90849063ffffffff16614e8c565b92506101000a81548163ffffffff021916908363ffffffff1602179055508160200151600014612c13576060850151855160208401516040516323b872dd60e01b81526001600160a01b039283166004820152848316602482015260448101919091529116906323b872dd906064016020604051808303816000875af1158015612bed573d6000803e3d6000fd5b505050506040513d601f19601f82011682018060405250810190612c11919061487e565b505b600283015415612d085760005b6002840154811015612d0657612cf26040518060c0016040528088600001516001600160a01b03168152602001866002018481548110612c6257612c6261484c565b9060005260206000200160000160009054906101000a90046001600160801b03166001600160801b03168152602001886040015163ffffffff16815260200188606001516001600160a01b03168152602001866002018481548110612cc957612cc961484c565b60009182526020918290200154600160801b900463ffffffff16825260a08a015191015261291c565b612cfc9086614bce565b9450600101612c20565b505b60058301546001600160a01b0316156133f1576005830154600090600160c01b900460e01b6001600160e01b031916156131575760058401546001600160a01b0380841691160361307b57600080856003016000018054612d6890614b39565b80601f0160208091040260200160405190810160405280929190818152602001828054612d9490614b39565b8015612de15780601f10612db657610100808354040283529160200191612de1565b820191906000526020600020905b815481529060010190602001808311612dc457829003601f168201915b5050505050806020019051810190612df99190614b73565b600588015491935091506302868bf960e11b600160c01b90910460e01b6001600160e01b03191601612f1557875160405163ce55982b60e01b81526001600160a01b0391821660048201528382166024820152604481018390529085169063ce55982b90606401600060405180830381600087803b158015612e7a57600080fd5b505af1158015612e8e573d6000803e3d6000fd5b50505050602088810180516001600160801b03908116600090815260fc845260408082206001600160a01b0388168084529086528183208784528652818320805460ff19169055935190519182526001975085949216917f76529e1c5add2962fbfae2a36bbcf688a5c01516b043ad429f1d81830687a2db910160405180910390a4613074565b600586015462fc808960e71b600160c01b90910460e01b6001600160e01b031916016130745787516040808a0151905163296789eb60e11b81526001600160a01b039283166004820152848316602482015263ffffffff909116604482015260648101839052908516906352cf13d690608401600060405180830381600087803b158015612fa257600080fd5b505af1158015612fb6573d6000803e3d6000fd5b5050506040808a01516020808c01516001600160801b0316600090815260fd82528381206001600160a01b03881682528252838120868252909152918220805463ffffffff9092169350919061300d908490614bb7565b90915550506020888101516001600160801b0316600081815260fd835260408082206001600160a01b038716808452908552818320868452855291819020549051908152600196508493919291600080516020615146833981519152910160405180910390a45b50506133d1565b6005840154604080850151602089015160808a01518a518b85015160a08d015195516001600160a01b038816979596600160c01b90960460e01b956130cc959493929160038e019190602401614eb4565b60408051601f198184030181529181526020820180516001600160e01b03166001600160e01b031990941693909317909252905161310a9190614faa565b60006040518083038185875af1925050503d8060008114613147576040519150601f19603f3d011682016040523d82523d6000602084013e61314c565b606091505b5050809150506133d1565b6060830151156132ad57738bf3585b3740a2da2190f911ea8bc84dd7972dd66001600160a01b03166359fc470a87602001518660030160020160009054906101000a90046001600160a01b0316896060015187606001516103e8886001600160a01b031663ced72f876040518163ffffffff1660e01b8152600401602060405180830381865afa1580156131ef573d6000803e3d6000fd5b505050506040513d601f19601f820116820180604052508101906132139190614c03565b8a606001516132229190614fc6565b61322c9190614fe5565b6040516001600160e01b031960e088901b1681526001600160801b0390951660048601526001600160a01b0393841660248601529290911660448401526064830152608482015260a401600060405180830381600087803b15801561329057600080fd5b505af11580156132a4573d6000803e3d6000fd5b505050506133cd565b738bf3585b3740a2da2190f911ea8bc84dd7972dd66001600160a01b03166339ed512384604001518660030160020160009054906101000a90046001600160a01b03166103e8866001600160a01b031663ced72f876040518163ffffffff1660e01b8152600401602060405180830381865afa158015613331573d6000803e3d6000fd5b505050506040513d601f19601f820116820180604052508101906133559190614c03565b88604001516133649190614fc6565b61336e9190614fe5565b6040516001600160e01b031960e086901b1681526001600160a01b03909216600483015260248201526044016000604051808303818588803b1580156133b357600080fd5b505af11580156133c7573d6000803e3d6000fd5b50505050505b5060015b806133ef5760405163af6eefa360e01b815260040160405180910390fd5b505b84600001516001600160a01b0316856080015163ffffffff1686602001516001600160801b03167fb5fcbfbc97629da9c45f418c65a8ed3e96873f8e54c6c435180455987431e7a0886040015189606001518760405161345393929190615007565b60405180910390a45050505b919050565b61348f6040518060800160405280600081526020016000815260200160008152602001600081525090565b613498886139ad565b6001600160a01b0380861660009081526001808b016020908152604092839020835160608101855281546001600160f81b038116825260ff600160f81b909104811615159382019390935292015490931691810182905260088b01549092600160f01b90910416906137fa576001600160a01b038716613533578561352283600184161515613b18565b61352c9190614fc6565b835261387c565b81602001511561376a57600080805260018b0160205260409020546001600160f81b031615158061356d575081516001600160f81b031615155b156137415781516000906001600160f81b031681036135ea57600080805260018c81016020908152604092839020835160608101855281546001600160f81b0381168252600160f81b900460ff161515928101929092528201546001600160a01b0316928101929092526135e5919084161515613b18565b6135f6565b82516001600160f81b03165b90506001600160801b0381111561362057604051633806212b60e21b815260040160405180910390fd5b6040516331b889b160e11b8152879073f2e8176c0b67232b20205f4dfbcec3e74bca471f9063637113629061367590859073b4fbf271143f4fbf7b91a5ded31805e42b2208d6908e9061070890600401615051565b602060405180830381865afa158015613692573d6000803e3d6000fd5b505050506040513d601f19601f820116820180604052508101906136b69190614c03565b6136c09190614fc6565b6020850181905260000361373b57600080805260018c81016020908152604092839020835160608101855281546001600160f81b0381168252600160f81b900460ff161515928101929092528201546001600160a01b031692810192909252889161372e9185161515613b18565b6137389190614fc6565b84525b5061387c565b6001811660000361376557604051630b27db6160e11b815260040160405180910390fd5b61387c565b81516001600160f81b03161561379a5781516137909087906001600160f81b0316614fc6565b602084015261387c565b600080805260018b81016020908152604092839020835160608101855281546001600160f81b0381168252600160f81b900460ff161515928101929092528201546001600160a01b03169281019290925287916135229184161515613b18565b81604001516001600160a01b031663d7a3d0c88a8a8a8a8a8a6040518763ffffffff1660e01b815260040161383496959493929190615087565b6040805180830381865afa158015613850573d6000803e3d6000fd5b505050506040513d601f19601f8201168201806040525081019061387491906150c7565b602085015283525b60048a0154156139a0576001600382901c16158015613900576001600283901c16158015906138e45784602001516000036138ca57604051630b27db6160e11b815260040160405180910390fd5b60048c01546138da908990614fc6565b60608601526138fa565b60048c01546138f4908990614fc6565b60408601525b5061399e565b60208401511561395957866127108c6003016001015486602001516139259190614fc6565b61392f9190614fe5565b6139399190614fc6565b60608501819052602085018051613951908390614bb7565b90525061399e565b60048b015484518891612710916139709190614fc6565b61397a9190614fe5565b6139849190614fc6565b604085018190528451859061399a908390614bb7565b9052505b505b5050979650505050505050565b60088101546001600160a01b0316610b94576040516329c2f8dd60e11b815260040160405180910390fd5b6001600160a01b0381163b613a455760405162461bcd60e51b815260206004820152602d60248201527f455243313936373a206e657720696d706c656d656e746174696f6e206973206e60448201526c1bdd08184818dbdb9d1c9858dd609a1b6064820152608401610af7565b6000805160206150ff83398151915280546001600160a01b0319166001600160a01b0392909216919091179055565b613a7d83613c50565b600082511180613a8a5750805b156113e557613a998383613c90565b50505050565b60c95460ff16610bb25760405162461bcd60e51b815260206004820152601460248201527314185d5cd8589b194e881b9bdd081c185d5cd95960621b6044820152606401610af7565b600054610100900460ff16613b0f5760405162461bcd60e51b8152600401610af790614e41565b610bb233612804565b81516000906001600160f81b0316158015613b31575081155b15613b4f57604051630b27db6160e11b815260040160405180910390fd5b826020015115613c3d5782516001600160801b036001600160f81b039091161115613b8d57604051633806212b60e21b815260040160405180910390fd5b82516040516331b889b160e11b815273f2e8176c0b67232b20205f4dfbcec3e74bca471f91636371136291613bf59190732f3a40a3db8a7e3d09b0adfefbce4f6f819275579073b4fbf271143f4fbf7b91a5ded31805e42b2208d69061070890600401615051565b602060405180830381865afa158015613c12573d6000803e3d6000fd5b505050506040513d601f19601f82011682018060405250810190613c369190614c03565b9050613c4a565b5081516001600160f81b03165b92915050565b613c59816139d8565b6040516001600160a01b038216907fbc7cd75a20ee27fd9adebab32041f755214dbc6bffa90cc0225b39da2e5c2d3b90600090a250565b60606001600160a01b0383163b613cf85760405162461bcd60e51b815260206004820152602660248201527f416464726573733a2064656c65676174652063616c6c20746f206e6f6e2d636f6044820152651b9d1c9858dd60d21b6064820152608401610af7565b600080846001600160a01b031684604051613d139190614faa565b600060405180830381855af49150503d8060008114613d4e576040519150601f19603f3d011682016040523d82523d6000602084013e613d53565b606091505b5091509150613d7b828260405180606001604052806027815260200161511f60279139613d84565b95945050505050565b60608315613d935750816112c6565b6112c68383815115613da85781518083602001fd5b8060405162461bcd60e51b8152600401610af791906150eb565b508054613dce90614b39565b6000825580601f10613dde575050565b601f016020900490600052602060002090810190610b949190613e80565b828054613e0890614b39565b90600052602060002090601f016020900481019282613e2a5760008555613e70565b82601f10613e4357805160ff1916838001178555613e70565b82800160010185558215613e70579182015b82811115613e70578251825591602001919060010190613e55565b50613e7c929150613e80565b5090565b5b80821115613e7c5760008155600101613e81565b803560ff8116811461345f57600080fd5b8015158114610b9457600080fd5b803561345f81613ea6565b803563ffffffff8116811461345f57600080fd5b60008060008060008060008060e0898b031215613eef57600080fd5b8835975060208901359650613f0660408a01613e95565b95506060890135613f1681613ea6565b94506080890135613f2681613ea6565b9350613f3460a08a01613ebf565b925060c08901356001600160401b0380821115613f5057600080fd5b818b0191508b601f830112613f6457600080fd5b813581811115613f7357600080fd5b8c60208260071b8501011115613f8857600080fd5b6020830194508093505050509295985092959890939650565b60008060408385031215613fb457600080fd5b50508035926020909101359150565b6001600160a01b0381168114610b9457600080fd5b600060208284031215613fea57600080fd5b81356112c681613fc3565b60005b83811015614010578181015183820152602001613ff8565b83811115613a995750506000910152565b60008151808452614039816020860160208601613ff5565b601f01601f19169290920160200192915050565b8281526040602082015260006122cd6040830184614021565b634e487b7160e01b600052604160045260246000fd5b60405160c081016001600160401b038111828210171561409e5761409e614066565b60405290565b604080519081016001600160401b038111828210171561409e5761409e614066565b604051608081016001600160401b038111828210171561409e5761409e614066565b60405161014081016001600160401b038111828210171561409e5761409e614066565b604051601f8201601f191681016001600160401b038111828210171561413357614133614066565b604052919050565b600082601f83011261414c57600080fd5b81356001600160401b0381111561416557614165614066565b614178601f8201601f191660200161410b565b81815284602083860101111561418d57600080fd5b816020850160208301376000918101602001919091529392505050565b600080604083850312156141bd57600080fd5b82356141c881613fc3565b915060208301356001600160401b038111156141e357600080fd5b6141ef8582860161413b565b9150509250929050565b60008060006060848603121561420e57600080fd5b833561421981613fc3565b95602085013595506040909401359392505050565b60006020828403121561424057600080fd5b5035919050565b60006001600160401b0382111561426057614260614066565b5060051b60200190565b80356001600160801b038116811461345f57600080fd5b6000602080838503121561429457600080fd5b82356001600160401b03808211156142ab57600080fd5b818501915085601f8301126142bf57600080fd5b81356142d26142cd82614247565b61410b565b81815260059190911b830184019084810190888311156142f157600080fd5b8585015b838110156143bb5780358581111561430d5760008081fd5b860160c0818c03601f19018113156143255760008081fd5b61432d61407c565b8983013561433a81613fc3565b8152604061434984820161426a565b8b830152606061435a818601613ebf565b82840152608091508185013561436f81613fc3565b9083015260a0614380858201613ebf565b8383015292840135928984111561439957600091508182fd5b6143a78f8d8688010161413b565b9083015250855250509186019186016142f5565b5098975050505050505050565b60008060008060008060c087890312156143e157600080fd5b863595506020870135945060408701356143fa81613fc3565b935060608701359250608087013561441181613fc3565b915060a08701356001600160401b0381111561442c57600080fd5b61443889828a0161413b565b9150509295509295509295565b8151815260208083015190820152604080830151908201526060808301519082015260808101613c4a565b60008060006060848603121561448557600080fd5b8335925060208401359150604084013561449e81613fc3565b809150509250925092565b600082601f8301126144ba57600080fd5b813560206144ca6142cd83614247565b82815260069290921b840181019181810190868411156144e957600080fd5b8286015b8481101561453657604081890312156145065760008081fd5b61450e6140a4565b6145178261426a565b8152614524858301613ebf565b818601528352918301916040016144ed565b509695505050505050565b80356001600160f81b038116811461345f57600080fd5b60006080828403121561456a57600080fd5b6145726140c6565b905061457d82614541565b8152602082013561458d81613ea6565b602082015260408201356145a081613fc3565b604082015260608201356145b381613fc3565b606082015292915050565b600082601f8301126145cf57600080fd5b813560206145df6142cd83614247565b82815260079290921b840181019181810190868411156145fe57600080fd5b8286015b84811015614536576146148882614558565b835291830191608001614602565b80356001600160e01b03198116811461345f57600080fd5b600060a0828403121561464c57600080fd5b60405160a081016001600160401b03828210818311171561466f5761466f614066565b81604052829350843591508082111561468757600080fd5b506146948582860161413b565b8252506020830135602082015260408301356146af81613fc3565b60408201526146c060608401614622565b60608201526146d160808401614622565b60808201525092915050565b6000806000606084860312156146f257600080fd5b8335925060208401356001600160401b038082111561471057600080fd5b90850190610140828803121561472557600080fd5b61472d6140e8565b82358281111561473c57600080fd5b614748898286016144a9565b82525060208301358281111561475d57600080fd5b614769898286016145be565b60208301525060408301358281111561478157600080fd5b61478d8982860161413b565b6040830152506060830135828111156147a557600080fd5b6147b18982860161413b565b6060830152506147c360808401613ebf565b60808201526147d460a08401613e95565b60a08201526147e560c08401613eb4565b60c08201526147f660e08401613eb4565b60e0820152610100614809818501613eb4565b9082015261012061481b848201613eb4565b908201529350604086013591508082111561483557600080fd5b506148428682870161463a565b9150509250925092565b634e487b7160e01b600052603260045260246000fd5b60006080828403121561487457600080fd5b6112c68383614558565b60006020828403121561489057600080fd5b81516112c681613ea6565b600082601f8301126148ac57600080fd5b815160206148bc6142cd83614247565b82815260059290921b840181019181810190868411156148db57600080fd5b8286015b848110156145365780518060060b81146148f95760008081fd5b83529183019183016148df565b805161345f81613fc3565b600080600083850360c081121561492757600080fd5b608081121561493557600080fd5b5061493e6140c6565b845161494981613fc3565b8152602085015162ffffff8116811461496157600080fd5b6020820152604085015165ffffffffffff8116811461497f57600080fd5b6040820152606085015161ffff8116811461499957600080fd5b606082015260808501519093506001600160401b038111156149ba57600080fd5b6149c68682870161489b565b9250506149d560a08501614906565b90509250925092565b600060a0820160ff89168352602088151581850152604088151581860152606063ffffffff891681870152608060a0818801528488865260c08801905089955060005b89811015614a8f576001600160f81b03614a3a88614541565b16825285870135614a4a81613ea6565b15158287015286850135614a5d81613fc3565b6001600160a01b03908116838701528785013590614a7a82613fc3565b16828501529582019590820190600101614a21565b509d9c50505050505050505050505050565b6020808252602c908201527f46756e6374696f6e206d7573742062652063616c6c6564207468726f7567682060408201526b19195b1959d85d1958d85b1b60a21b606082015260800190565b6020808252602c908201527f46756e6374696f6e206d7573742062652063616c6c6564207468726f7567682060408201526b6163746976652070726f787960a01b606082015260800190565b600181811c90821680614b4d57607f821691505b602082108103614b6d57634e487b7160e01b600052602260045260246000fd5b50919050565b60008060408385031215614b8657600080fd5b8251614b9181613fc3565b6020939093015192949293505050565b634e487b7160e01b600052601160045260246000fd5b600082821015614bc957614bc9614ba1565b500390565b60008219821115614be157614be1614ba1565b500190565b600060208284031215614bf857600080fd5b81516112c681613fc3565b600060208284031215614c1557600080fd5b5051919050565b600081518084526020808501945080840160005b83811015614c6657815180516001600160801b0316885283015163ffffffff168388015260409096019590820190600101614c30565b509495945050505050565b600081518084526020808501945080840160005b83811015614c6657815180516001600160f81b03168852838101511515848901526040808201516001600160a01b03908116918a0191909152606091820151169088015260809096019590820190600101614c85565b6000815160a08452614cf060a0850182614021565b602084810151908601526040808501516001600160a01b0316908601526060808501516001600160e01b0319908116918701919091526080948501511693909401929092525090919050565b60018060a01b03841681526060602082015260008351610140806060850152614d696101a0850183614c1c565b91506020860151605f1980868503016080870152614d878483614c71565b935060408801519150808685030160a0870152614da48483614021565b935060608801519150808685030160c087015250614dc28382614021565b9250506080860151614ddc60e086018263ffffffff169052565b5060a0860151610100614df38187018360ff169052565b60c08801519150610120614e0a8188018415159052565b60e0890151151593870193909352870151151561016086015250850151151561018084015282810360408401526114888185614cdb565b6020808252602b908201527f496e697469616c697a61626c653a20636f6e7472616374206973206e6f74206960408201526a6e697469616c697a696e6760a81b606082015260800190565b600063ffffffff808316818516808303821115614eab57614eab614ba1565b01949350505050565b6001600160801b038716815263ffffffff8681166020808401919091526001600160a01b0387166040840152908516606083015260c060808301528354600091908290600181811c9082811680614f0c57607f831692505b8583108103614f2957634e487b7160e01b85526022600452602485fd5b60c0880183905260e08801818015614f485760018114614f5957614f84565b60ff19861682528782019650614f84565b60008c81526020902060005b86811015614f7e57815484820152908501908901614f65565b83019750505b50505050505083810360a0850152614f9c8186614021565b9a9950505050505050505050565b60008251614fbc818460208701613ff5565b9190910192915050565b6000816000190483118215151615614fe057614fe0614ba1565b500290565b60008261500257634e487b7160e01b600052601260045260246000fd5b500490565b63ffffffff841681526001600160a01b038316602082015260c081016122cd6040830184805182526020810151602083015260408101516040830152606081015160608301525050565b6001600160801b039490941684526001600160a01b0392831660208501529116604083015263ffffffff16606082015260800190565b868152602081018690526001600160a01b038581166040830152606082018590528316608082015260c060a0820181905260009061144090830184614021565b600080604083850312156150da57600080fd5b505080516020909101519092909150565b6020815260006112c6602083018461402156fe360894a13ba1a3210667c828492db98dca3e2076cc3735a920a3ca505d382bbc416464726573733a206c6f772d6c6576656c2064656c65676174652063616c6c206661696c6564f0832fe058ed4ffda256632e9c3d7b50283fb2e36310b6beaf08f633b1407057a26469706673582212206714e292f75a67aadf826ae92ff0dc136a25609e61e1b8707e99f250b125d7c364736f6c634300080d0033",
  "linkReferences": {},
  "deployedLinkReferences": {}
}